:020000040800F2
:100000005006002001010008393700087334000849
:10001000B1360008F10D0008D540000800000000CE
:10002000000000000000000000000000C1370008D0
:10003000F30D0008000000005B370008C33700081C
:100040001B0100081B0100081B0100081B01000820
:100050001B0100081B0100081B0100081B01000810
:100060001B0100081B0100081B0100081B01000800
:100070001B0100081B0100081B0100081B010008F0
:100080001B0100081B0100081B0100081B010008E0
:100090001B0100081B0100081B0100081B010008D0
:1000A0001B0100081B0100081B0100081B010008C0
:1000B0001B0100081B010008813800081B01000813
:1000C0001B0100081B0100081B0100081B010008A0
:1000D0001B010008C94000081B0100081B010008A3
:1000E0001B0100081B0100081B010008DFF80CD0F1
:1000F00000F0BAFB00480047354C000850060020CD
:100100000648804706480047FEE7FEE7FEE7FEE7B1
:10011000FEE7FEE7FEE7FEE7FEE7FEE73938000808
:10012000ED000008202A04DB203A21FA02F0002129
:10013000704721FA02F3D040C2F1200291400843F7
:1001400019467047421C10F8011B0029FBD1801A88
:10015000704770B5064603F0CFFF046805460A22D3
:100160000021304600F058F92C6070BD80EA010291
:1001700010B502F00043400022D04A001FD0010E0B
:1001800001EB1261C0F35600C2F3560240F40000C6
:1001900042F40002A0FB022000047F39140400D0C6
:1001A000401C50EA124001D44000491EC2B20C0665
:1001B00004EBD010401C4008802A02D003E000204D
:1001C00010BD20F00100002900DA0020184310BD06
:1001D00030B480EA010202F0004530F0004221F024
:1001E000004013D090B1C30DD40DC2F31601C0F37B
:1001F0001600E41A41F4000140F400027D349142FB
:1002000001D3641C00E04900002C02DA30BC00205D
:1002100070474FF400000023914201D3891A034331
:1002200040084FEA4101F7D151B1914202D14FF05C
:10023000004105E002D24FF0010101E06FF0010141
:1002400003EBC450284430BC00F01EB9C10F80EA53
:10025000E0700844CA079623002100F01EB900F0A0
:10026000004220F00040C10DC0F3160040F4000031
:100270007F2901DA00207047962903DCC1F196013D
:10028000C84001E096398840002AF4D040427047C7
:1002900000F0004230F000400AD0C10D01F560715D
:1002A000C0F3160042EA0151C208400711437047EB
:1002B00000200146704701F0004330B421F00041B6
:1002C00050EA010206D00A0DA2F56072C1F31301D3
:1002D000002A02DC30BC00207047440F44EAC1040D
:1002E000C100E01830BC00EBC25000F0CDB830B512
:1002F0000B46014600202022012409E021FA02F5E4
:100300009D4205D303FA02F5491B04FA02F528447D
:10031000151EA2F10102F1DC30BD2DE9F05F0546AA
:10032000002092469B4688460646814640241BE0B4
:100330002846414647462246FFF7F4FE53465A46B2
:10034000C01A914110D311461846224600F09EFA79
:100350002D1A67EB01084F4622460120002100F0CC
:1003600095FA17EB00094E41201EA4F10104DFDCD1
:10037000484631462A464346BDE8F09F0FB4002365
:1003800000B589B00CA900910B996FF00042CB60C9
:100390001E4B06931E4B07930423CDE901321D4AE1
:1003A000089202466B46002000F020FB09B05DF881
:1003B00014FB70B586B006464FF0FF300091CDE9D2
:1003C0000101002015460C4604903246694604A8F7
:1003D000FFF7D4FF03460498211825B108B10A4657
:1003E00000E022462A6000280DD0002B02DD009894
:1003F000884208D0081B0094CDE9010432466946C2
:1004000004A8FFF7BBFF06B070BD0000250C000874
:10041000430C0008D90800082DE9F04791460F4623
:1004200080460446002614F8015B2DB100F050FA16
:100430000068405DC007F6D12B2D02D02D2D18D0BD
:10044000641E4A463946204600F00CFC27B1396844
:10045000A14201D1C7F8008071054FF002040BD50D
:100460004042002803DD03F047FE0460A007BDE81A
:10047000F08746F48066E4E70028F8DA03F03CFEF3
:1004800004606FF00040F2E70029A8BF7047401CED
:10049000490008BF20F00100704710B4B0FA80FC9A
:1004A00000FA0CF050EA010404BF10BC704749B1D7
:1004B000CCF1200421FA04F411FA0CF118BF012147
:1004C00021430843A3EB0C01CB1D4FEA00614FEA27
:1004D000102042BF002010BC704700EBC3501044F6
:1004E0000029A4BF10BC7047401C490008BF20F081
:1004F000010010BC70472DE9FE4F804681EA0300E1
:10050000C00F0C46009021F0004123F00045B8EBED
:100510000200A94105D24046214690461C460B46A2
:10052000024623F00040104347D0270DC7F30A00CE
:10053000C3F30A510290401A019040286BDAC3F3CA
:10054000130040F4801B0098924620B10023D2EBA8
:10055000030A63EB0B0B01985946C0F14002504669
:1005600000F094F906460D4650465946019A00F0AF
:100570009CF910EB08006141002487EA115284EADB
:10058000E7731A4340D0009A62B3019A012A4FEAF6
:10059000075215DC001B61EB02014FF0004202EA3A
:1005A0000752CDE90042001C41F5801132462B462E
:1005B00000F0B6FB03B0BDE8F08F40462146F9E7F6
:1005C000001B61EB0201001C41F5801300185B4128
:1005D0002018A2F5001747EB030140EAD570B619C1
:1005E0006D4111E06D084FEA360645EAC0754FEAE5
:1005F0000752001B61EB0201001C41F58011490804
:100600004FEA30000019514132462B4603B0BDE895
:10061000F04F00F076BB0098012240000023D0EBA1
:10062000020263EBE073009821464FEAE074B8EBF6
:10063000000061EB0401E9E783F000435BE781F030
:10064000004158E72DE9FE4F81EA030404F000441D
:1006500021F0004100944FF0000B23F0004350EADA
:1006600001045ED052EA03045BD0C3F30A54C1F321
:100670000A552C44A4F2F3340194A0FB0254C1F3B4
:10068000130141F48011C3F3130343F4801301FBFE
:10069000024400FB034E840A970A44EA815447EA65
:1006A0008357A4FB076802958D0A05FB07854FEA6F
:1006B000932C04FB0C542705029D4FEA065847EA89
:1006C0001637B5EB08056EEB070C870E920E47EA5E
:1006D000811742EA8312A7FB0201B6EB0B0164EB20
:1006E00000042B0D43EA0C335E1844EB1C50DA4631
:1006F0005146E7FB0201C5F313044FEA0B3343EA0B
:1007000014534FEA0432019C43EA0603A4F10C049B
:100710000294009CCDE900B400F002FB03B0BDE8F8
:10072000F08F00200146F9E72DE9F04D81EA03043E
:1007300004F0004B21F0004514464FF0000A23F06E
:10074000004150EA050220D054EA01021DD0C5F351
:100750000A570246C5F31303C1F31300C1F30A5647
:1007600040F4801543F48013A7EB0608101BD6460F
:1007700008F2FD3873EB050002D308F1010801E02F
:1007800092185B41B8F1000F03DA00200146BDE882
:10079000F08D00204FF48011064684460EE0171BB2
:1007A00073EB050705D3121B63EB050306434CEA05
:1007B000010C49084FEA300092185B4150EA0107EA
:1007C000EDD152EA030012D082EA040083EA050167
:1007D000084305D0101BAB4106D20122002306E0DE
:1007E00000224FF0004302E06FF0010253101AEBB9
:1007F00006004CEB085110EB0A0041EB0B01BDE881
:10080000F04D00F07EBAC1F30A52C1F3130140F279
:10081000FF3341F480119A4202DA0020014670470A
:1008200040F233439A42A2F2334202DC5242FFF7D3
:1008300079BC00F02BB8000030B5041E71F1000443
:1008400004DB4FF00044404264EB0101141E73F1DD
:10085000000405DB1C464FF00043524263EB0403E7
:10086000994208BF904230BD064C074D06E0E06853
:1008700040F0010394E8070098471034AC42F6D3E7
:10088000FFF738FCD0520008F0520008202A04DBA1
:10089000203A00FA02F1002070479140C2F1200393
:1008A00020FA03F3194390407047202A06DBCB1748
:1008B000203A41FA02F043EAE07306E041FA02F31B
:1008C000D040C2F120029140084319467047000011
:1008D00000487047CC52000810B50446FFF7F8FFF7
:1008E0000068005D00F0010010BD00002DE9FF4F21
:1008F000087881B09946FF2805D0491C2D2804D0DE
:100900000024002308E000230BE00124F9E703EBB7
:10091000830300EB4303491C0878FF28F7D104B197
:100920005B4200200090147801462D2C01D02B2C26
:1009300004D1521C2D2C12D00024009400251678CE
:10094000FF2E0ED00A24A0FB04C801FB048100275F
:1009500000FB0711521C16EB0C006941EFE7012464
:10096000EBE7994450EA01020ED00024AA4D264636
:10097000DFF8A88200F030FA82468B46B9F1000019
:1009800009DAC9F100071BE001980021C0E9001154
:1009900005B0BDE8F08F074612E0F80707D0224601
:1009A0002B4630464146FFF74DFE06468846224616
:1009B0002B4610461946FFF745FE04460D467F10AC
:1009C000002FEAD1B9F1000F32464346504659464E
:1009D00002DAFFF7A9FE01E0FFF734FE009A0AB140
:1009E00081F00041019AC2E90001D1E72DE9FF4FF2
:1009F0001F468DB0D7E901464FF0FF382E204546FF
:100A00004FF000090B90B9696D1C0E988847396A40
:100A1000824688470028F6D1BAF1FF3F0AD024F475
:100A2000D064002E11DDBAF12B0F08D0BAF12D0FD2
:100A30000BD102E0404611B0ABE744F48064B969E1
:100A40006D1C0E9888478246761E6946600501D562
:100A50002D2000E02B208DF8000001F1010B0DF19D
:100A6000200809E0B9696D1C0E98884782460F98E6
:100A700044F40074761E0560002E02DDBAF1300FDA
:100A8000F0D00B998A453ED144F0800406E00F99DE
:100A9000681CA9F1010944F400740860B9696D1C6F
:100AA000761E0E98884782463028F0D02BE00B99AE
:100AB0008A4505D1200603D444F08004761E18E050
:100AC000504603F0EBFB08B30DF11301761E44F41E
:100AD00000748B4508D2AAF130000BF8010B2006F8
:100AE00007D5A9F1010003E0200602D409F10100B5
:100AF0008146A00502D50F99681C0860B9696D1C74
:100B00000E9888478246002ED1DC53E0002E51DD3E
:100B1000BAF1650F02D0BAF1450F4BD1A00549D506
:100B2000B9696D1C24F44074761E0E98884782467D
:100B3000002E0CDD2B2804D0BAF12D0F07D144F480
:100B40008074B9696D1C0E9888478246761EE00550
:100B500001D52D2100E02B2108F8011BCDF82C80B8
:100B600021E00DF12901761E44F4007488450CD271
:100B7000AAF1300010F0FF0088F8000002D10B99B4
:100B8000884509D908F1010806E0E00501D52448A7
:100B900001E042F20F708146B9696D1C0E988847DA
:100BA00082460F980560002E04DD504603F076FB68
:100BB0000028D6D1F9690E988847FF208BF80000ED
:100BC00088F800000020069007904B466A4608A966
:100BD00006A8FFF78BFEA00502D46FF001002AE7FC
:100BE00014F0240F0AD0E00714D1DDE906123868AA
:100BF000031D3B600068C0E900120BE0DDE906015F
:100C0000FFF759FB0146E00704D13868021D3A603E
:100C10000068016028460EE7000024400000F03F15
:100C2000F1D8FFFF426842B1016811F8013B23B1DE
:100C3000521EC0E90012184670470121C160881E8B
:100C4000704742685AB1C368016843B983688B42F0
:100C500005D0491E521CC0E90012002070474FF019
:100C6000FF3070472DE9F05F824600780027154677
:100C70008B460AF10104B946302801D09DB113E03A
:100C800014F8010B0127782803D0582801D045B16A
:100C90000AE00DB1102D07D10027102514F8010B23
:100CA00002E0082500E00A250026B0460EE005FB1C
:100CB000080005FB06F1012701EB10461FFA80F83A
:100CC000B6F5803F00D3B94614F8010B294600F071
:100CD00075F80028EBDABBF1000F05D00FB1641EE8
:100CE00000E05446CBF80040B9F1000F06D003F005
:100CF00003FA02210160C81EBDE8F09F48EA0640E1
:100D0000FAE710B5141E73F1000408DA401C41F133
:100D1000000192185B411A4301D120F0010010BD7F
:100D20002DE9F04D92469B4611B1B1FA81F202E0F5
:100D3000B0FA80F220329046FFF7A8FD04460F4635
:100D400040EA0A0041EA0B0153465A46084313D0D1
:100D5000114653EA010019D0C8F140025046FFF78E
:100D6000E1F905460E46504659464246FFF78EFDCC
:100D7000084305D0012004E020463946BDE8F08D47
:100D80000020054346EAE0762C4337430A98630582
:100D9000E40AA0EB08000022FD0A44EA47540A30A6
:100DA00002D500200146E9E7010510196941DDE996
:100DB000084500196941BDE8F04DA2E73A2800D284
:100DC000303820F02002412A01D3A2F137008842B6
:100DD00001D34FF0FF3070470EB540F2334202921C
:100DE0000022CDE900221346FFF79AFF03B000BDB1
:100DF000FEE77047FEE731B500F0ACFA044600F0BC
:100E0000A9FA0099001B8842F9D338BD2DE9F05F9B
:100E1000434F0025DFF80C91DFF80CA1DFF80CB18F
:100E20000E460446B8420DD04C450BD0544509D06F
:100E30005C4507D03E48844204D04FF4BC713DA0CD
:100E400003F0CBFD3004000C64D140F2791139A0DD
:100E500003F0C3FD5EE00120A840304059D0FF28D8
:100E600001D8234601E004F104034FEA850201D9C9
:100E7000A2F12002D3F800C04FF00F0101FA02F8EE
:100E80002CEA080C4FF0040808FA02F84CEA080CA7
:100E9000C3F800C0E26822EA0002E260344A25F0AA
:100EA00003031A44D2F808C04FEA85734FEA13735C
:100EB00001FA03F101EA0C0CBC4202D14FF0000828
:100EC00010E04C4502D14FF001080BE0544502D12F
:100ED0004FF0020806E05C4502D14FF0030801E044
:100EE0004FF0040808FA03F8E04512D193688B43E9
:100EF000936020490A6882430A600A1D1168814391
:100F00001160121D116881431160111D0A6882432E
:100F10000A606D1C36FA05F09DD1BDE8F09F000017
:100F200000080140000C0140001001400014014085
:100F3000001801402E2E2F447269766572732F536C
:100F4000544D3332463178785F48414C5F44726982
:100F50007665722F5372632F73746D3332663178F6
:100F6000785F68616C5F6770696F2E6300000000D6
:100F700000000140000401402DE9F84FDFF890B275
:100F80000D4604464FF0000958450FD0A148844251
:100F90000CD0A148844209D0A048844206D0A04881
:100FA000844203D0CF219FA003F017FD28880004BE
:100FB000000C03D1D0219BA003F00FFD6868F8B1AD
:100FC00001281DD011281BD0022819D0122817D0B3
:100FD000A349884214D0A349884211D0A24988422B
:100FE0000ED0A24988420BD0A149884208D0A1491D
:100FF000884205D0032803D0D1218AA003F0EDFC5C
:1010000000274FF0010A00BF2E680AFA07F806EA27
:10101000080646456FD15C450FD07E4884420CD00F
:101020007D48844209D07D48844206D07C48844271
:1010300003D0DF217BA003F0D0FC89496868421A05
:10104000884259D00EDC032876D006DC002853D025
:10105000012819D002286AD131E0112821D01228A4
:1010600065D13AE0B2F5881F46D006DCB2F5803F84
:1010700042D0B2F5801F5AD13EE0B2F5001F3BD0FE
:10108000B2F5041F53D137E0E868022807D00128E1
:1010900005D0032803D0E72162A003F09EFCE86896
:1010A0003FE0E868022807D0012805D0032803D0D4
:1010B000EE215CA003F091FCE868001D31E0E868D7
:1010C000022807D0012805D0032803D0F52155A018
:1010D00003F083FCE868083023E0E868022807D0C2
:1010E000012805D0032803D0FC214EA003F075FC95
:1010F000E8680C3015E085E0A86888B1012812D0B6
:10110000022808D040F2091146A003F066FCA86846
:1011100030B1012807D04FF00809C4F8148006E068
:101120000420814603E04FF00809C4F81080FF2E28
:1011300005D8224605E0FFE74FF00000F1E704F193
:1011400004024FEA870001D9A0F1200013684FF094
:101150000F0101FA00FC23EA0C0309FA00FC43EA40
:101160000C0313606868C0004CD54348826942F0A4
:1011700001028261806927F0030200F00100009003
:101180003E4802449068BB071B0F994088435C456A
:1011900001D100210FE01F498C4201D101210AE059
:1011A0001D498C4201D1022105E01C498C4201D12C
:1011B000032100E004219940014391606868C00365
:1011C0002F48016801D5314300E0B14301606868F0
:1011D00080032C48016801D5314300E0B143016030
:1011E0006868C0022848016801D5314300E0B14376
:1011F0000160686880022548016801D5314300E03C
:10120000B14301607F1C102FFFF4FEAEBDE8F88FE4
:1012100000080140000C0140001001400014014092
:10122000001801402E2E2F447269766572732F5379
:10123000544D3332463178785F48414C5F4472698F
:101240007665722F5372632F73746D333266317803
:10125000785F68616C5F6770696F2E6300000000E3
:1012600000001110000021100000311000001210C9
:101270000000221000003210001002400000014067
:101280000004014004040140080401400C04014032
:1012900070B50C00054604D14FF4E27103A003F0D1
:1012A0009CFBA868204000D0012070BD2E2E2F444A
:1012B0007269766572732F53544D333246317878A4
:1012C0005F48414C5F4472697665722F5372632F99
:1012D00073746D3332663178785F68616C5F677004
:1012E000696F2E630000000070B515460C000646BD
:1012F00004D14FF4F27108A003F06FFB45B1012D4A
:1013000004D040F2E51104A003F067FB346170BD26
:101310002004306170BD00002E2E2F447269766566
:1013200072732F53544D3332463178785F48414CB5
:101330005F4472697665722F5372632F73746D33D5
:1013400032663178785F68616C5F6770696F2E63B1
:101350000000000001480068704700009000002075
:1013600002480168491C016070470000900000209D
:10137000074810B5016841F010010160032000F03A
:101380000BF9002000F006F800F016F8002010BD60
:101390000020024010B5044600F084FA4FF47A7140
:1013A000B0FBF1F000F0BEFE00222146501E00F01E
:1013B000A3F8002010BD00001D4808B5816941F068
:1013C00001018161806900F001000090032000F0BC
:1013D000E3F8002211466FF00B0000F08DF80022B8
:1013E00011466FF00A0000F087F8002211466FF0F6
:1013F000090000F081F800221146501F00F07CF82F
:1014000000221146101F00F077F800221146901EAE
:1014100000F072F800221146501E00F06DF80548E9
:10142000416821F0E06141F00071416008BD0000B9
:10143000001002400000014010B5040003D5F62161
:1014400006A003F0CAFA04F01F01012088406109D8
:10145000890001F1E021C1F8800110BD2E2E2F443A
:101460007269766572732F53544D333246317878F2
:101470005F48414C5F4472697665722F5372632FE7
:1014800073746D3332663178785F68616C5F636F57
:10149000727465782E63000010B5040003D5E62150
:1014A00006A003F09AFA04F01F01012088406109A8
:1014B000890001F1E021C1F8000110BD2E2E2F445A
:1014C0007269766572732F53544D33324631787892
:1014D0005F48414C5F4472697665722F5372632F87
:1014E00073746D3332663178785F68616C5F636FF7
:1014F000727465782E63000070B515460C4606467A
:10150000102A03D3D22114A003F067FA102C03D3BE
:10151000D32111A003F061FA1E480068C0F3022332
:10152000C3F107022046042A00D90422191D072905
:1015300001D2002300E0DB1E012404FA02F1491E5F
:10154000014099409C40641E2C4021433046BDE838
:10155000704002F0F2B800002E2E2F4472697665BA
:1015600072732F53544D3332463178785F48414C73
:101570005F4472697665722F5372632F73746D3393
:1015800032663178785F68616C5F636F727465781A
:101590002E6300000CED00E010B5044607280BD0C8
:1015A000062C09D0052C07D0042C05D0032C03D021
:1015B000BA2108A003F011FA154904F007020868DF
:1015C0004FF6FF03184040EA0220124A1043086019
:1015D00010BD00002E2E2F447269766572732F5352
:1015E000544D3332463178785F48414C5F447269DC
:1015F0007665722F5372632F73746D333266317850
:10160000785F68616C5F636F727465782E63000049
:101610000CED00E00000FA052DE9F0470E4605004C
:1016200004D14FF42F718DA003F0D7F92868C107BA
:101630000AD1810708D4410706D4000704D440F238
:10164000BD2186A003F0C9F946B1012E06D0022EB5
:1016500004D040F2BE2181A003F0BFF9DFF834824C
:10166000D8F8000000F00700B0420CD2D8F8001003
:1016700021F007013143C8F80010D8F8000000F04D
:101680000700B0426FD12878834C80071CD5A8682A
:10169000A0B1802812D0902810D0A0280ED0B02859
:1016A0000CD0C0280AD0D02808D0E02806D0F028D6
:1016B00004D040F2D72169A003F08FF96068A968CF
:1016C00020F0F000084360602878C00764D06868A4
:1016D000012768B1012817D0022834D040F2DE215A
:1016E0005EA003F07AF9686801280DD002282AD09C
:1016F0005FF0020191FAA1F0B0FA80F040F0200012
:10170000400904D0206803E04FF40031F2E7606A3A
:1017100091FAA1F1B1FA81F101F01F018F40384235
:101720004BD06068696820F0030008436060FFF7F1
:1017300011FE6968074641F2883001290CD0022960
:10174000814616D024E04FF00071D3E7FFF702FE88
:10175000C11B494501D918E081466068C0F381008A
:101760000128F3D118E028E0FFF7F4FDC11B49453B
:101770000BD86068C0F381000228F5D10CE000BFEF
:10178000FFF7E8FDC11B494502D90320BDE8F087FA
:10179000606810F00C0FF3D1D8F80010404601F04B
:1017A0000701B1420BD9016821F007013143016003
:1017B000006800F00700B04201D00120E6E7287879
:1017C0004FF4806640074FF4A0674FF4C0684FF4B1
:1017D000E06914D5E86860B1B0420AD0B84208D0D8
:1017E000404506D0484504D040F232311BA003F0FA
:1017F000F4F86068E96820F4E060084360602878E5
:10180000000715D5286960B1B0420AD0B84208D0A7
:10181000404506D0484504D040F239310FA003F0CE
:10182000DCF86068296920F4605040EAC10060601B
:1018300000F06EF86168F02292FAA2F201F0F00175
:10184000B2FA82F2D140154A515CC840144908608E
:101850000020FFF79FFD002098E700002E2E2F4468
:101860007269766572732F53544D333246317878EE
:101870005F48414C5F4472697665722F5372632FE3
:1018800073746D3332663178785F68616C5F726350
:10189000632E630000200240001002403052000816
:1018A0000000002001480068704700000000002090
:1018B00008480949006849684FF4E06292FAA2F2C8
:1018C00001F4E061B2FA82F2D140044A515CC840AE
:1018D0007047000000000020001002404052000845
:1018E00008480949006849684FF4605292FAA2F228
:1018F00001F46051B2FA82F2D140044A515CC8400E
:101900007047000000000020001002404052000814
:1019100010B519A385B00FCB8DE80F001AA01B4B93
:10192000006804905A681A4802F00C0104291DD07E
:1019300008291BD14FF4701494FAA4F402F4701126
:10194000B4FA84F4E140D2031DF8011010D55A68AE
:101950004FF4003393FAA3F302F40032B3FA83F3A3
:10196000DA4004AB9A5CB0FBF2F0484305B010BD1E
:1019700008484843FAE7000002030405060708097F
:101980000A0B0C0D0E0F1010010200000010024097
:1019900000127A0000093D002DE9F84F040004D13F
:1019A0004FF48771EFA003F018F80227DFF8EC83FB
:1019B000FB4D20684FF4003A4FF000094FF4803B94
:1019C000012660B1C1070DD1810777D4010776D414
:1019D000400775D440F20F11E2A002F0FEFF20781C
:1019E000C00730D0606848B1584507D0B0F5A02F87
:1019F00004D040F21511DBA002F0EFFF6868C0F3DD
:101A00008100012807D06868C0F3810002281BD13B
:101A10006868C00318D59AFAAAF1B1FA81F141F0C9
:101A20002001490901D0296800E0696A9AFAAAF000
:101A3000B0FA80F000F01F0006FA00F0014260D01A
:101A4000606800287ED05CE06068584503D1286853
:101A500040F480300AE010B1B0F5A02F0DD0286816
:101A600020F480302860286820F480202860606896
:101A700038B3FFF76FFC00900AE0286840F480203C
:101A80002860E4E7FFF766FC0099401A642873D8E1
:101A90009AFAAAF0B0FA80F040F02000400901D094
:101AA000286800E0686A9AFAAAF1B1FA81F101F0B7
:101AB0001F0106FA01F10842E4D022E024E0BBE075
:101AC00034E1FFE7FFF746FC009005E0FFF742FC3A
:101AD0000099401A6428DAD89AFAAAF0B0FA80F08D
:101AE00040F02000400901D0286800E0686A9AFAB6
:101AF000AAF1B1FA81F101F01F0106FA01F10842E1
:101B0000E4D1207880076DD5206930B1012804D058
:101B100040F2491193A002F060FF60691F2804D9C8
:101B20004FF4A5718FA002F058FF686810F00C0FF9
:101B300007D06868C0F3810002281ED16868C0031E
:101B40001BD400E08FE097FAA7F0B0FA80F040F0E5
:101B50002000400901D0286800E0686A97FAA7F1E0
:101B6000B1FA81F101F01F0106FA01F108422DD00E
:101B70002069012877D129E06FE2206998B396FAAD
:101B8000A6F0B0FA80F048F82060FFF7E3FB009081
:101B900007E000BFFFF7DEFB01460098081A0228A5
:101BA00099D897FAA7F0B0FA80F040F020004009E9
:101BB00001D0286800E0686A97FAA7F1B1FA81F1CC
:101BC00001F01F0106FA01F10842E3D02868F8226B
:101BD00092FAA2F26169B2FA82F220F0F800914022
:101BE0000843286025E0FFE796FAA6F1B1FA81F1F3
:101BF00048F82190FFF7AEFB009005E0FFF7AAFB45
:101C00000099401A0228CBD897FAA7F0B0FA80F0D2
:101C100040F02000400901D0286800E0686A97FA87
:101C2000A7F1B1FA81F101F01F0106FA01F10842B2
:101C3000E4D12078000776D5A06988B3012806D0C2
:101C40004FF4C57147A002F0C8FEA06940B396FAF0
:101C5000A6F0B0FA80F008EB8000C0F88064FFF7CF
:101C600079FB009006E0B3E1FFF774FB0099401A9E
:101C7000022895D897FAA7F0B0FA80F040F06000FB
:101C8000B6EB501F01D128680CE097FAA7F0B0FA24
:101C900080F040F06000B7EB501F02D1286A01E0ED
:101CA0000EE0686A97FAA7F1B1FA81F101F01F011D
:101CB00006FA01F21042D7D00120FFF79CF832E07B
:101CC00096FAA6F1B1FA81F108EB8101C1F880948E
:101CD000FFF740FB009005E0FFF73CFB0099401A3E
:101CE000022890D897FAA7F0B0FA80F040F0600090
:101CF000B6EB501F01D128680BE097FAA7F0B0FAB5
:101D000080F040F06000B7EB501F01D1286A00E07E
:101D1000686A97FAA7F1B1FA81F101F01F0106FA9A
:101D200001F21042D8D12078400778D5E06840B160
:101D3000012806D0052804D040F2B71109A002F00E
:101D40004CFEE86940F08050E861E86900F080509E
:101D500000901448016841F480710160FFF7FAFABD
:101D6000009027E02E2E2F447269766572732F53F0
:101D7000544D3332463178785F48414C5F44726944
:101D80007665722F5372632F73746D3332663178B8
:101D9000785F68616C5F7263632E6300000042428B
:101DA0000010024000700040FFF7D4FA0099401A7A
:101DB000642896D8B7480068C005F5D5E0680128C2
:101DC0000AD008B1052811D0286A20F00100286245
:101DD000286A20F0040002E0286A40F0010028622E
:101DE000E068A0B3FFF7B6FA00900DE0286A40F073
:101DF00004002862F0E700BFFFF7ACFA0099411A2F
:101E000041F288308142D4D897FAA7F0B0FA80F036
:101E100040F04000B6EB501F02D128680CE044E0CF
:101E200097FAA7F0B0FA80F040F04000B7EB501FEF
:101E300001D1286A00E0686A97FAA7F1B1FA81F146
:101E400001F01F0206FA02F10842D5D02DE0FFE7AB
:101E5000FFF780FA009007E0FFF77CFA0099411A3B
:101E600041F288308142A4D897FAA7F0B0FA80F006
:101E700040F04000B6EB501F01D128680BE097FA04
:101E8000A7F0B0FA80F040F04000B7EB501F01D14E
:101E9000286A00E0686A97FAA7F1B1FA81F101F0C7
:101EA0001F0206FA02F10842D6D1E06900286ED07E
:101EB00001280AD0022808D040F24721AFF25C1076
:101EC00002F08BFDE069002861D06868C0F38100F2
:101ED00002287DD0E0694FF0807702280BD097FA76
:101EE000A7F1B1FA81F148F82190FFF733FA0746DC
:101EF0004FF00074B4E0206A38B1584505D04FF473
:101F00001471AFF2A01002F068FD606A78B3B0F50A
:101F1000802F2CD0B0F5002F29D0B0F5402F26D03F
:101F2000B0F5801F23D0B0F5A01F20D0B0F5C01FA2
:101F30001DD0B0F5E01F1AD0B0F5001F17D0B0F5D6
:101F4000101F14D0B0F5201F11D0B0F5301F0ED0E7
:101F5000B0F5401F0BD0B0F5501F08D0B0F5601F92
:101F600005D040F25121AFF2042002F036FD4FF0CF
:101F7000807191FAA1F14846B1FA81F1C14648F861
:101F80002100FFF7E7F980464FF0007706E07CE09C
:101F9000FFF7E0F9A0EB080002285ED897FAA7F057
:101FA000B0FA80F040F02000400901D0286800E03D
:101FB000686A97FAA7F1B1FA81F101F01F0106FAF8
:101FC00001F10842E4D1206A584511D1A06800E02F
:101FD0005DE038B1504505D040F26721AFF27C207A
:101FE00002F0FBFC6868A16820F4003008436860D8
:101FF000D4E908010843696821F474110843686052
:102000004FF0807090FAA0F0B0FA80F049F82060AC
:10201000FFF7A0F9044604E0FFF79CF9001B022833
:102020001BD897FAA7F0B0FA80F040F020004009E2
:1020300001D0286800E0686A97FAA7F1B1FA81F147
:1020400001F01F0106FA01F10842E5D01DE000BFD2
:10205000FFF780F9C01B022802D90320BDE8F88FE2
:1020600094FAA4F0B0FA80F040F02000400901D0CA
:10207000286800E0686A94FAA4F1B1FA81F101F0ED
:102080001F0106FA01F10842E2D10020E6E7012033
:10209000E4E700000070004010B54FF0E024042891
:1020A00009D020B14FF4DF7105A002F096FC206941
:1020B00020F0040002E0206940F00400206110BD1F
:1020C0002E2E2F447269766572732F53544D33321E
:1020D000463178785F48414C5F4472697665722F6B
:1020E0005372632F73746D3332663178785F686131
:1020F0006C5F636F727465782E6300000748084A4E
:10210000416C491C4164914207D90021C1710122EF
:102110008275826B521C8263416470470400002008
:10212000E093040010B5401EB0F1807F01D3012080
:1021300010BD4FF0E02460610F21601701F0FDFA3F
:102140000020A06107202061002010BD10B5FFF71E
:10215000D5FF10BD7047704770B50D460446006846
:102160002A4988420DD0B0F1804F0AD028498842D0
:1021700007D02849884204D040F28C6126A002F0A2
:102180002CFC286890B1102810D020280ED03028C0
:102190000CD040280AD0502808D0602806D07028DB
:1021A00004D040F28D611CA002F017FC6868802802
:1021B00005D020B140F28E6117A002F00EFC94F819
:1021C000380001281FD0012084F83800022184F84B
:1021D000391021684A6822F070024A6021684A6812
:1021E0002B681A434A6021688A6822F080028A605C
:1021F00021688A686B681A438A6084F83900002075
:1022000084F8380070BD022070BD0000002C014031
:1022100000040040000800402E2E2F4472697665AD
:1022200072732F53544D3332463178785F48414CA6
:102230005F4472697665722F5372632F73746D33C6
:1022400032663178785F68616C5F74696D5F65785C
:102250002E63000070B50D46044600680E498842A2
:1022600004D145B1042D06D0082D04D040F2973199
:102270000AA002F0B2FB04222946206801F088FB84
:102280002068416C41F4004141642068016841F0DC
:1022900001010160002070BD002C01402E2E2F4452
:1022A0007269766572732F53544D333246317878A4
:1022B0005F48414C5F4472697665722F5372632F99
:1022C00073746D3332663178785F68616C5F7469FE
:1022D0006D5F65782E63000010B504002ED0214993
:1022E000206888420CD0B0F1804F09D01E49884246
:1022F00006D01E49884203D0D7211DA002F06DFBF5
:10230000A06858B1102809D0202807D0402805D04F
:10231000602803D0D82116A002F05FFB206948B1E5
:10232000B0F5807F06D0B0F5007F03D0D92110A092
:1023300002F053FB94F8390010B107E0012010BD02
:10234000002084F83800204600F02EF8022084F89F
:102350003900211D206801F099FA012084F8390024
:10236000002010BD002C0140000400400008004087
:102370002E2E2F447269766572732F53544D33326B
:10238000463178785F48414C5F4472697665722FB8
:102390005372632F73746D3332663178785F68617E
:1023A0006C5F74696D2E630008B500680B49884244
:1023B00012D10B48C16941F00401C161C06900221A
:1023C00000F00400009011461E20FFF795F8BDE8CC
:1023D00008401E20FFF760B808BD0000000800405C
:1023E0000010024010B5044600680E4988420DD026
:1023F000B0F1804F0AD00C49884207D00B4988427F
:1024000004D04FF4AF710AA002F0E7FA2068C16867
:1024100041F00101C1602068016841F001010160E3
:10242000002010BD002C01400004004000080040C6
:102430002E2E2F447269766572732F53544D3332AA
:10244000463178785F48414C5F4472697665722FF7
:102450005372632F73746D3332663178785F6861BD
:102460006C5F74696D2E63002DE9F047044690F8A7
:1024700038000D4601283CD04FF0010984F838900F
:10248000022084F8390028684FF480564FF4005831
:10249000B04215D0404513D090B1102810D020285C
:1024A0000ED030280CD040280AD0502808D0602800
:1024B00006D0702804D040F64B71C5A002F08DFA0A
:1024C0002068816821F0770121F47F418160CF4944
:1024D0002B68CD48CE4ACF134FF0804C502B7DD087
:1024E0000FDC202B7BD007DC002B79D0102B78D190
:1024F0003BE10220BDE8F087302B73D0402BF6D1B2
:10250000F7E0602B6FD04FF4405A702B51D0B3429C
:102510003CD04345EBD1236883420AD0634508D0C1
:102520008B4206D0934204D040F67A71A8A002F004
:1025300054FAA86850B1B04208D0404506D0504582
:1025400004D040F67D71A2A002F047FA6868B84254
:1025500009D040B1022806D00A2804D040F67E7186
:102560009BA002F03AFAE8680F2804D940F67F7180
:1025700097A002F032FAD5E90121EB68206801F05A
:1025800012FA2068816841F4804153E02368834255
:102590000AD0634508D08B4206D0934204D040F65F
:1025A00057718BA002F019FA2068816821F00701A9
:1025B00040E0236883420AD0634508D08B4206D0AE
:1025C000934204D04FF4766181A002F006FAA86825
:1025D00088B1B0420FD040450DD005E02CE0D5E0E9
:1025E000B2E080E0E3E052E0504504D040F6637191
:1025F00077A002F0F2F96868B84209D040B1022829
:1026000006D00A2804D040F6647171A002F0E5F902
:10261000E8680F2804D940F665716DA002F0DDF975
:10262000D5E90121EB68206801F0BDF920688168D7
:1026300041F07701816056E0236883420AD0634508
:1026400008D08B4206D0934204D040F68E7160A031
:1026500002F0C3F96868B84209D040B1022806D038
:102660000A2804D040F6917159A002F0B6F9E86842
:102670000F2804D940F6927155A002F0AEF9EA682D
:102680006968206801F02AFB5021206829E023684E
:1026900083420AD0634508D08B4206D0934204D0CF
:1026A00040F69D714AA002F098F96868B84209D0D6
:1026B00040B1022806D00A2804D04FF47A6144A021
:1026C00002F08BF9E8680F2804D940F6A17140A008
:1026D00002F083F9EA686968206801F010FB602164
:1026E000206801F06AF984F83990002084F83800F5
:1026F00000E7236883420AD0634508D08B4206D0A6
:10270000934204D040F6AC7131A002F066F96868DB
:10271000B84209D040B1022806D00A2804D040F6B9
:10272000AF712BA002F059F9E8680F2804D94FF4D3
:102730007B6127A002F051F9EA686968206801F01E
:10274000CDFA40212068CCE7236883420AD0634554
:1027500008D08B4206D0934204D040F6BB711CA037
:1027600002F03BF900212068BBE7236883420AD0CE
:10277000634508D08B4206D0934204D040F6C37123
:1027800013A002F02AF910212068AAE723688342E7
:102790000AD0634508D08B4206D0934204D040F65D
:1027A000CB710BA002F019F92021206899E723686A
:1027B00083420AD0634508D08B4206D0934204D0AE
:1027C00040F6D37102A002F008F93021206888E7B2
:1027D0002E2E2F447269766572732F53544D333207
:1027E000463178785F48414C5F4472697665722F54
:1027F0005372632F73746D3332663178785F68611A
:102800006C5F74696D2E6300002C01400004004071
:10281000000800402DE9F0410C4605007AD05E49E1
:10282000286888420DD0B0F1804F0AD05B498842B9
:1028300007D05B49884204D040F6C80159A002F095
:10284000CCF82068012808D0022806D0032804D03C
:1028500040F6C90153A002F0C0F8A068012808D0D2
:10286000022806D0032804D040F6CA014DA002F089
:10287000B4F8A069012808D0022806D0032804D0A3
:1028800040F6CB0147A002F0A8F8606840B10228EA
:1028900006D00A2804D040F6CC0142A002F09DF8F0
:1028A000606940B1022806D00A2804D040F6CD0164
:1028B0003CA002F092F8E06850B1042808D0082843
:1028C00006D00C2804D040F6CE0136A002F085F8E0
:1028D000E06950B1042808D0082806D00C2804D09C
:1028E00040F6CF012FA002F078F820690F2804D914
:1028F0004FF40D612BA002F070F8206A0F2804D964
:1029000040F6D10127A002F068F895F8390020B10F
:1029100009E0FFE70120BDE8F081002085F83800DC
:10292000284600F05BF8022085F8390028688168A5
:1029300021F007018160291D286800F0A7FF2A689F
:1029400090689169166A2368A769034340F20330CF
:10295000814341EA0721A068E76908434FF6FC413B
:102960008843E16840EA072001432069276A0001A3
:1029700040EA073008436168646926F0AA0646EA1F
:102980000414214393602A68906128680162012041
:1029900085F839000020BEE7002C0140000400400B
:1029A000000800402E2E2F447269766572732F53F3
:1029B000544D3332463178785F48414C5F447269F8
:1029C0007665722F5372632F73746D33326631786C
:1029D000785F68616C5F74696D2E630000B5006894
:1029E0000C4985B0884212D10B48C16941F00201FF
:1029F000C161C069694600F002000490C0200090E7
:102A000000200190012002900448FEF7B5FA05B0BD
:102A100000BD00000004004000100240000801401A
:102A200070B50D46044600681E4988420DD0B0F1CD
:102A3000804F0AD01C49884207D01C49884204D0E4
:102A400040F6AA111AA001F0C8FF95B12068042D24
:102A50004FF0010217D0002100F04AFF01220421AB
:102A6000206800F045FF2068C16841F00201C160A4
:102A70000CE001220021206800F03AFF2068C168C4
:102A800041F0020106E0042100F032FF2068C16835
:102A900041F00401C1602068016841F0010101605A
:102AA000002070BD002C01400004004000080040E0
:102AB0002E2E2F447269766572732F53544D333224
:102AC000463178785F48414C5F4472697665722F71
:102AD0005372632F73746D3332663178785F686137
:102AE0006C5F74696D2E6300704770B504460068B2
:102AF00001694FF00005C943890715D4C168C9436E
:102B0000890711D4E91E01610120207620688069BF
:102B10008007204602D0FFF7E7FF04E000F0B4F89A
:102B2000204600F029FA257620680169C943490743
:102B300017D4C168C943490713D46FF00401016178
:102B4000022020762068806910F4407F204602D061
:102B5000FFF7CAFF04E000F097F8204600F00CFAF7
:102B6000257620680169C943090716D4C168C9439D
:102B7000090712D46FF00801016104202076206853
:102B8000C0698007204602D0FFF7AEFF04E000F0E6
:102B90007BF8204600F0F0F9257620680169C943EA
:102BA000C90617D4C168C943C90613D46FF0100110
:102BB0000161082020762068C06910F4407F20461B
:102BC00002D0FFF791FF04E000F05EF8204600F02D
:102BD000D3F9257620680169C943C90708D1C168BE
:102BE000C943C90704D1891E0161204600F026FAB5
:102BF00020680169C943090609D4C168C9430906A7
:102C000005D46FF0800101612046FFF7A3FA206828
:102C10000169C943490609D4C168C943490605D4B5
:102C20006FF040010161204600F00AFA2068016956
:102C3000C94389060BD4C168C943890607D46FF01C
:102C4000200101612046BDE87040FFF784BA70BDE5
:102C50001FB50068B0F1804F10D14FF48060009034
:102C600002200190039069460548FEF785F9054862
:102C7000416821F4407141F4007141601FBD0000C2
:102C8000000C014000000140704700002DE9F041B8
:102C9000044690F8380016460D4601283CD001271E
:102CA00084F8387066B1042E0AD0082E08D00C2E95
:102CB00006D0182E04D040F60D415FA001F08DFE25
:102CC0002868602806D0702804D040F60E415AA02B
:102CD00001F083FEA86830B1022804D040F60F410D
:102CE00055A001F07AFE286930B1042804D04FF4D1
:102CF000416151A001F071FE022084F839005C4866
:102D00005C495D4A4FF0804C4EB1042E28D0082E0D
:102D100049D00C2E46D167E00220BDE8F08123683F
:102D200083420AD0634508D08B4206D0934204D038
:102D300040F6184140A001F050FE2946206800F0FE
:102D400045FE2068816941F0080181612068816940
:102D500021F004018161206881692A69114320E022
:102D6000236883420AD0634508D08B4206D0934241
:102D700004D040F6274130A001F02FFE29462068FC
:102D800000F08AFE2068816941F400618161206859
:102D9000816921F480618161206881692A6941EA41
:102DA0000221816142E0236883420AD0634508D052
:102DB0008B4206D0934204D040F636411EA001F06B
:102DC0000CFE2946206800F0D1FE2068C16941F060
:102DD0000801C1612068C16921F00401C161206856
:102DE000C1692A69114320E0236883420AD0634500
:102DF00008D08B4206D0934204D040F645410EA045
:102E000001F0EBFD2946206800F01AFF2068C16937
:102E100041F40061C1612068C16921F48061C16130
:102E20002068C1692A6941EA0221C16184F83970C8
:102E3000002084F8380070E72E2E2F4472697665E2
:102E400072732F53544D3332463178785F48414C7A
:102E50005F4472697665722F5372632F73746D339A
:102E600032663178785F68616C5F74696D2E6300DB
:102E7000002C0140000400400008004010B5040090
:102E800031D02349206888420DD0B0F1804F0AD05C
:102E90002049884207D02049884204D040F2E231DC
:102EA0001EA001F09AFDA06860B110280AD0202869
:102EB00008D0402806D0602804D040F2E33117A0A3
:102EC00001F08BFD206950B1B0F5807F07D0B0F5DF
:102ED000007F04D04FF4797110A001F07EFD94F8CA
:102EE000390010B107E0012010BD002084F838003F
:102EF000204600F02FF8022084F83900211D2068B8
:102F000000F0C4FC012084F83900002010BD00004E
:102F1000002C014000040040000800402E2E2F44E9
:102F20007269766572732F53544D33324631787817
:102F30005F48414C5F4472697665722F5372632F0C
:102F400073746D3332663178785F68616C5F746971
:102F50006D2E630008B50068B0F1804F08D10548B8
:102F6000C16941F00101C161C06900F00100009038
:102F700008BD0000001002407047000070B5054613
:102F800000681D4E0C46B04206D10CB3042C1FD075
:102F9000082C1DD00C2C1BD0B0F1804F0CD0174941
:102FA000884206D1A4B1042C12D0082C10D00C2CCD
:102FB0000ED01349884206D154B1042C08D0082CF5
:102FC00006D00C2C04D04FF488610EA001F005FD52
:102FD00001222146286800F08BFC2868B04203D10A
:102FE000416C41F4004141642868016841F00101ED
:102FF0000160002070BD0000002C01400004004072
:10300000000800402E2E2F447269766572732F538C
:10301000544D3332463178785F48414C5F44726991
:103020007665722F5372632F73746D333266317805
:10303000785F68616C5F74696D2E630001F0B6BFE4
:103040007047704738B5044600680168C26811F0DF
:10305000010F02F4807204D01AB1E16B41F001015A
:10306000E1630168C1F34002416901F0010122B14D
:1030700019B1E26B42F00402E2630268C2F380021B
:1030800022B119B1E26B42F00202E2630268C2F3BC
:10309000C00222B119B1E16B41F00801E16301689E
:1030A000C068C1F3401100F0200019B110B12046F2
:1030B00000F038FE20680168C068C1F3C01100F05C
:1030C000800019B110B1204600F082FF2168086825
:1030D000CA68C0F3801002F04002012570B16AB1E5
:1030E000CA68204622F04002CA6094F8391032299A
:1030F00011D080F8395000BF00F0BAF9E06B002819
:1031000008D0206801684068009084F83950204653
:10311000FFF797FF38BD222180F83910ECE7000057
:1031200070B5040020D0A06933490028334A344BDD
:1031300020681BD088420AD0904208D0984206D01E
:1031400040F207112FA001F048FCA069C8B1A069A6
:10315000B0F5807F15D0B0F5007F12D0B0F5407F7C
:103160000FD04FF4847109E0012070BD884208D06F
:10317000904206D0984204D04FF4867121A001F00D
:103180002CFCA06838B1B0F5805F04D04FF4877193
:103190001CA001F022FCE06920B140F20F1119A03F
:1031A00001F01BFC94F83900002520B984F8385050
:1031B000204600F061F8022084F839002068C168D8
:1031C00021F40051C160204600F000FE2068016932
:1031D00021F4904101612068416921F02A01416197
:1031E0002068C16841F40051C160E563012084F8A2
:1031F0003900002070BD000000380140004400404C
:10320000004800402E2E2F447269766572732F534A
:10321000544D3332463178785F48414C5F4472698F
:103220007665722F5372632F73746D333266317803
:10323000785F68616C5F756172742E6300000000D6
:1032400010B50068094988420ED10948816921F406
:10325000804181614FF4C0610648FDF7D7FDBDE8AC
:1032600010402520FEF7E8B810BD000000380140EE
:10327000001002400008014010B50068154986B0F2
:10328000884225D11448816941F480418161806977
:10329000124C00F4804004904FF400700090022023
:1032A00001900320039069462046FDF765FE00214A
:1032B0002015CDE90001029169462046FDF75CFE2C
:1032C000002201212520FEF717F92520FEF7E4F85A
:1032D00006B010BD00380140001002400008014057
:1032E00090F83930012B01D0122B2CD139B332B3E5
:1032F00090F83830012B26D0012380F838308162D5
:103300008285C2850021C16390F83920122A18D025
:103310005FF0220280F8392080F838100168CA680E
:1033200042F48072CA6001684A6942F001024A614F
:103330000068C16841F02001C16000207047012091
:1033400070473222E6E702207047000010B50446BD
:1033500000224FF480710F48FDF7C6FF0E49206828
:10336000884210D10D490A7B0A2A0DD00C4B487BAC
:103370001A54401CC0B24873012804D101F18000E6
:103380008168491C816010BD00204873012088734A
:1033900010BD00000008014000380140040000207A
:1033A000BA0000202DE9F047044690F8390099460C
:1033B0000D46012801D0222858D12DB322B394F80C
:1033C0003800012852D0012684F838600027E763CE
:1033D00094F8390022281AD05FF0120084F83900DE
:1033E000A284E2844FF48058E08C4B46401EE08477
:1033F000A0684FF0000240454FF08001204613D1F5
:1034000000F019FE08BB04E00120BDE8F08732207F
:10341000E4E728882168C0F308004860206908B103
:103420006D1C08E0AD1C06E000F005FE68B92168DF
:1034300015F8010B4860E08C0028D5D14B460022DE
:103440004021204600F0F7FD08B10320DDE794F8A5
:103450003900322806D084F8396000BF84F838700B
:103460000020D2E7222084F83900F7E70220CCE7D9
:103470007047FEE72DE9F041364886B0816941F09A
:1034800010018161816901F010010491816941F0AD
:1034900020018161816901F020010491816941F07D
:1034A00004018161816901F004010491816941F0A5
:1034B000080181618069032500F0080004904FF441
:1034C0006040CDE9000569462348FDF755FD49F602
:1034D0000300CDE90005DFF8848069464046FDF72A
:1034E0004BFD34200026CDE90006012469460294F4
:1034F0004046FDF741FD0820CDE9000669460294EB
:103500004046FDF739FDC720CDE90004144F0226DF
:10351000694603963846FDF72FFD4FF63830CDE962
:10352000000569463846FDF727FD2502CDE9005420
:10353000694640460396FDF71FFD0022C721384625
:10354000FDF7D2FE002229464046FDF7CDFE06B02B
:10355000BDE8F08100100240001001400008014069
:10356000000C014010B516488AB04FF0804100248D
:10357000C0E900144FF4E151C0E902410461FFF7D2
:103580007DFC08B1FDF736FC079407A90C480894A8
:10359000FEF7E2FD08B1FDF72DFC6020CDE9000447
:1035A00002940822694606480494FFF76FFB08B1AD
:1035B000FDF720FC0248FFF74BFB0AB010BD0000EE
:1035C0005801002010B515488CB013490024C0E9FB
:1035D00000144FF6FF71C0E902410461032000901E
:1035E00001AB0A200121042283E8170005AB83E820
:1035F000170069460948FFF70DF908B1FDF7FAFB16
:10360000099409A905480A94FEF7A6FD002801D0EF
:10361000FDF7F0FB0CB010BD000400409401002049
:1036200010B5144886B012490024C0E900144FF4C4
:103630008761C0E902410461FEF74EFE08B1FDF763
:10364000D9FB4FF48050009069460A48FEF70CFF02
:1036500008B1FDF7CFFB049404A906480594FEF7D2
:103660007BFD002801D0FDF7C5FB06B010BD0000B2
:1036700000080040D00100200C4810B50A49016044
:103680004FF4E1314160002181600C22C160C0E94A
:1036900004128161C161FFF743FD002803D0BDE83A
:1036A0001040FDF7A7BB10BD003801400C02002000
:1036B000FEE7000070B51C4C05464FF47A76D4E95D
:1036C0000201401A6063626A4243A263216BE36AAB
:1036D000411A59432164A36A434393FBF6F3E66B13
:1036E0003344E3632063501818446064686C0F4BE4
:1036F000002803DA40420122686400E0002204212D
:103700001846FDF7F1FD696C4FF4E150814200DD90
:10371000686407480179074819B100210068C1634E
:1037200070BD616CFAE7000000010020000C014050
:10373000040000205801002070470907090E0028E6
:1037400006DA00F00F0000F1E02080F8141D704749
:1037500000F1E02080F800147047704770B5154DF7
:10376000154C064601291CD0002201212846FDF7F0
:10377000BBFD26B1012202212846FDF7B5FD00223E
:1037800002212846FDF7B0FD20210C48FDF780FD01
:10379000002805D02069002802D00020E0602061C8
:1037A00070BD012211462846FDF79EFD606940422A
:1037B0006061DEE7000C0140D800002000080140F5
:1037C000704710B5FDF7CCFDBDE81040FEF7BEBC5C
:1037D00030B58FB00120009000040024CDE9010431
:1037E0000225CDE907504FF4E01009906846FEF736
:1037F000D3F800B1FEE70F20CDE90A054FF4806051
:10380000CDE90C4002210AA80E94FDF705FF00B196
:10381000FEE7FEF747F84FF47A71B0FBF1F0FEF7E0
:1038200081FC0420FEF738FC00221146501EFDF7F3
:1038300063FE0FB030BD00000D48016841F001018A
:10384000016041680B4A1140416001680A4A114019
:103850000160016821F480210160416821F4FE01CA
:1038600041604FF41F0181600449C0030860704744
:10387000001002400000FFF8FFFFF6FE08ED00E038
:103880000148FFF732B90000D0010020F0B502680E
:10389000144B154C154D4FF08047984205D0B84257
:1038A00003D0A04201D0A84203D122F070064A689A
:1038B0003243984205D0B84203D0A04201D0A8427A
:1038C00003D122F44074CA68224302608A68C2624B
:1038D0000A688262984201D109690163012141614C
:1038E000F0BD0000002C0140000400400008004032
:1038F00070B50446154816460D4684420DD0B4F105
:10390000804F0AD01248844207D01248844204D023
:1039100041F2EB4110A001F060F865B1042D0AD02E
:10392000082D08D00C2D06D0182D04D041F2EC4102
:1039300009A001F052F80120216AA84081432162C8
:10394000206AAE403043206270BD0000002C014070
:1039500000040040000800402E2E2F447269766556
:1039600072732F53544D3332463178785F48414C4F
:103970005F4472697665722F5372632F73746D336F
:1039800032663178785F68616C5F74696D2E6300B0
:1039900010B50423046A8B409C430462036A8A4086
:1039A0001343036210BD10B5846842EA032224F475
:1039B0007F440A432243826010BD826822F0700275
:1039C0000A4342F007018160704700002DE9F04191
:1039D0000446006A0D4620F001002062206A6768F4
:1039E000A169AE6820F0020021F073020643296845
:1039F0001A4841EA0208844228D1E86830B1082810
:103A000004D041F2152116A000F0E7FFE86826F087
:103A10000801084320F00406A869B0F5007F05D02E
:103A200020B141F222210EA000F0D7FF6869B0F565
:103A3000807F05D020B141F2232109A000F0CDFF05
:103A400027F440716869AF69084307436760C4F8A9
:103A50001880686860632662BDE8F081002C014030
:103A60002E2E2F447269766572732F53544D333264
:103A7000463178785F48414C5F4472697665722FB1
:103A80005372632F73746D3332663178785F686177
:103A90006C5F74696D2E63002DE9F0410446006A85
:103AA0000D4620F010002062206A6768A1692A682C
:103AB00021F4E64141EA0228A96820F0200040EA0A
:103AC00001161B4884422BD1E86830B1082804D085
:103AD00041F25F2117A000F080FFE96826F0800026
:103AE00040EA011020F04006A869B0F5007F05D03B
:103AF00020B141F26D210FA000F06FFF6869B0F5B1
:103B0000807F05D020B141F26E210AA000F065FF50
:103B1000696927F4406040EA8100A96940EA8107A9
:103B20006760C4F818806868A0632662BDE8F08109
:103B3000002C01402E2E2F447269766572732F532C
:103B4000544D3332463178785F48414C5F44726956
:103B50007665722F5372632F73746D3332663178CA
:103B6000785F68616C5F74696D2E63002DE9F041C8
:103B70000446006A0D4620F480702062206A67685F
:103B8000E16920F4007021F07302296841EA02081B
:103B9000A96840EA01261B4884422BD1E86830B16D
:103BA000082804D041F2AA2117A000F016FFE96806
:103BB00026F4006040EA012020F48066A869B0F590
:103BC000007F05D020B141F2B7210FA000F005FF22
:103BD0006869B0F5807F05D020B141F2B8210AA014
:103BE00000F0FBFE696927F4405040EA0110A96922
:103BF00040EA01176760C4F81C806868E0632662C9
:103C0000BDE8F081002C01402E2E2F4472697665AC
:103C100072732F53544D3332463178785F48414C9C
:103C20005F4472697665722F5372632F73746D33BC
:103C300032663178785F68616C5F74696D2E6300FD
:103C40002DE9F0410446006A0D4620F480502062C0
:103C5000206A6668E1692A6821F4E64141EA02289F
:103C6000A96820F4005040EA01370D4884420ED183
:103C70006869B0F5807F05D020B141F2F52109A037
:103C800000F0ABFE696926F4804040EA8116666068
:103C9000C4F81C80686820642762BDE8F0810000D9
:103CA000002C01402E2E2F447269766572732F53BB
:103CB000544D3332463178785F48414C5F447269E5
:103CC0007665722F5372632F73746D333266317859
:103CD000785F68616C5F74696D2E630010B5036A6C
:103CE000046A24F001040462846924F0F00444EAC4
:103CF000021423F00A020A438461026210BD10B567
:103D0000036A23F0100303628369046A23F4704397
:103D100043EA023224F0A00343EA01118261016206
:103D200010BD000010B590F83910222903D03229B7
:103D300001D0022010BD8168B1F5805F11D001690A
:103D4000002901681FD0496801F07F03816A4A1C7D
:103D500082620B70C18D491E0904090CC18518D0FF
:103D600030E00269816A002A0268526805D0D2B246
:103D70000A80816A491C8162ECE7C2F308020A806A
:103D8000816A891CF7E74A68816A4B1C83620A7062
:103D9000E0E70168CA6822F02002CA6090F8391092
:103DA000322911D00168CA6822F48072CA600168A1
:103DB0004A6922F001024A615FF0010180F839107E
:103DC000FFF7C4FA002010BD1221F7E72DE9F041FA
:103DD000044640686D49884204D340F252716CA099
:103DE00000F0FBFDE06838B1B0F5005F04D040F2B0
:103DF000537167A000F0F1FD206950B1B0F5806FFC
:103E000007D0B0F5C06F04D040F2547160A000F04C
:103E1000E4FD606930F00C0100D120B940F2557129
:103E20005BA000F0DAFD20680169E26821F44051EE
:103E3000114301612169A068084361690843216851
:103E4000CA6841F20C639A430243CA602068416920
:103E5000A26921F44071114341615C4920686425E5
:103E6000322688423CD1FDF73BFD00EBC00101EB5F
:103E7000001061688900B0FBF1F7FDF731FD00EB40
:103E8000C00101EB00106168B0468900B0FBF1F0A1
:103E9000B0FBF5F06FF01801484307EB800106EB2B
:103EA0000110B0FBF5F000F0F006FDF719FD00EB96
:103EB000C00101EB001061688900B0FBF1F0B0FBBC
:103EC000F5F006EB0016FDF70BFD00EBC00101EB72
:103ED000001061688900B0FBF1F7FDF701FD3BE0E0
:103EE000FDF7E6FC00EBC00101EB00106168890002
:103EF000B0FBF1F7FDF7DCFC00EBC00101EB0010BB
:103F00006168B0468900B0FBF1F0B0FBF5F06FF0EE
:103F10001801484307EB800106EB0110B0FBF5F0F8
:103F200000F0F006FDF7C4FC00EBC00101EB00104F
:103F300061688900B0FBF1F0B0FBF5F006EB00160C
:103F4000FDF7B6FC00EBC00101EB001061688900D1
:103F5000B0FBF1F7FDF7ACFC00EBC00101EB00108A
:103F600061688900B0FBF1F0B0FBF5F06FF018016B
:103F7000484307EB800108EB0110B0FBF5F0216826
:103F800000F00F0030448860BDE8F08121AA4400B1
:103F90002E2E2F447269766572732F53544D33322F
:103FA000463178785F48414C5F4472697665722F7C
:103FB0005372632F73746D3332663178785F686142
:103FC0006C5F756172742E63000000000038014060
:103FD00090F83910122903D0322901D002207047FD
:103FE0008168B1F5805F016A0BD04A1C02620268E9
:103FF00009785160C18C491E0904090CC1840ED096
:1040000017E009880268C1F30801516001690029BD
:10401000016A02D0491C0162ECE7891CFBE70168D8
:10402000CA6822F08002CA600068C16841F040019D
:10403000C160002070472DE9F0471D4690460E46AE
:104040000446FDF787F907465FEA08004FF00009CC
:104050004FF0010808D030E0681C05D095B1FDF79D
:1040600079F9C01BA8420DD82068006836EA000024
:10407000F2D127E0681C20D025B1FDF76BF9C01BF9
:10408000A8421AD92068C16821F08001C160206867
:10409000C16821F02001C1602068C16821F48071ED
:1040A000C1602068416921F00101416184F83980D3
:1040B00084F838900320BDE8F0872068006836EA6D
:1040C0000000D7D00020F6E70148FEF7BBBF000094
:1040D0000C020020FEE700000FB4054B10B503A949
:1040E000044A029800F0E2F810BC5DF814FB0000EE
:1040F000894A00089400002000487047980000207A
:1041000001480068704700009800002002E008C8DD
:10411000121F08C1002AFAD170477047002001E041
:1041200001C1121F002AFBD170470000014908603D
:1041300070470000980000202DE9FF5FDDE90220B4
:10414000010DDDF838B0024318D044F61050A1F24A
:10415000FF3141430D140F98012820D0A5EB0B002F
:10416000401C5FEA000A4FF00004474EDFF81C9144
:10417000A046504616D5CAF1000728E00F98012442
:1041800043A2012808D0002100980F9BC0E900211C
:10419000C0E90243BDE8FF9F6FEA0B01F4E7CBF1F2
:1041A0000000DEE7074612E0F80707D02246334654
:1041B00040464946FCF746FA804689462246334641
:1041C00010461946FCF73EFA04460E467F10002FB3
:1041D000EAD1DDE90201BAF1000F42464B4602DAAC
:1041E000FCF730FA01E0FCF79FFA04460E46002285
:1041F000284BFCF721FB03D84FF0FF30014607E0C6
:104200000022254B20463146FCF775F9FCF7FBFAF6
:10421000102409E0002C0ADB0A220023FCF77DF8B9
:10422000019B30321A55641E50EA0102F2D1641C1F
:10423000019AC4F1110314440F9A012A03D00122F8
:1042400008430DD10AE0084304D000204FF0110BC1
:104250000F9080E7A3EB0B056D1E0DE05B4504DDC1
:104260004FF0000205F1010504E003DA4FF000020F
:10427000A5F10105002AECD000980F99C0E90231A0
:10428000C0E9004586E70000000024400000F03F40
:10429000300000000000F0430000E03F30380A2802
:1042A00001D2012070470020704700002DE9FF4F28
:1042B00095B09B468946064600250FE2252877D112
:1042C00000242746F84A0121059400E0044316F82B
:1042D000013F203B01FA03F01042F7D130782A2841
:1042E00011D06FF02F033078A0F13002092A16D8D0
:1042F000059A44F0020402EB820203EB42021044EE
:10430000761C0590EFE759F8042B0592002A03DA92
:10431000504244F40054059044F00204761C307876
:104320002E2816D116F8010F44F004042A280DD0C7
:104330006FF02F023078A0F13003092B09D807EB7A
:10434000870302EB4303C718761CF3E759F8047B95
:10435000761C30786C280FD006DC4C2817D06828E3
:104360000DD06A2814D104E0742810D07A280FD117
:104370000DE044F400140AE044F4801401E044F435
:1043800040147278824202D104F58014761C761CA7
:10439000307866280BD013DC582877D009DC002849
:1043A00075D04528F6D04628F4D047281AD19DE18B
:1043B00018E0632835D0642879D0652812D195E1BA
:1043C000702873D008DC6728F1D069286FD06E2878
:1043D0000DD06F2806D1B5E073282CD0752875D084
:1043E000782874D05A46179990476D1C75E1C4F32C
:1043F0000250022809D003280DD0D9F80010042853
:104400000DD00D6009F1040967E1D9F80010EA1731
:10441000C1E90052F6E7D9F800100D80F2E70D70FF
:10442000F0E719F8041B8DF8001000208DF801004A
:10443000EA46012003E059F804AB4FF0FF30610772
:104440004FF0000102D40DE008F101018846B942A5
:104450000FDA8045F8DB1AF808100029F4D108E0DB
:1044600008F1010188468142FADB1AF80810002998
:10447000F6D105985B46A0EB080721463846179A07
:1044800000F094FA284400EB080507E04DE029E12C
:104490000DE01AF8010B5A4617999047B8F1010838
:1044A000F7D25B4621463846179A13E142E00A22CA
:1044B0000092C4F302524FF0000A022A08D059F8C1
:1044C00004CB032A4FEAEC710AD00DE029E02AE080
:1044D00009F1070121F00702F2E802C1914609E063
:1044E0000FFA8CFC4FEAEC71042A03D14FFA8CFCD2
:1044F0004FEAEC71002907DA0A460021DCF1000CD2
:1045000061EB02012D2202E0220504D52B228DF859
:104510000420012203E0E20701D02022F7E79046C1
:1045200059E00A2102E010220DE010214FF0000AAC
:1045300000910BE010224FF0000A44F00404082719
:10454000009203E008224FF0000A0092C4F30252E6
:10455000022A05D059F804CB0021032A08D009E02B
:1045600009F1070121F00702F2E802C1914605E0D6
:104570001FFA8CFC042A01D10CF0FF0C4FF000084C
:10458000220728D5702806D0009B83F0100353EA39
:104590000A0305D00EE040228DF80420012208E035
:1045A0005CEA010206D030228DF804208DF8050067
:1045B00002229046009B83F0080353EA0A030AD1C3
:1045C0005CEA010201D1620705D530228DF8042092
:1045D0004FF001087F1E582804D034A003900EA885
:1045E00002900DE036A0F9E753466046009AFBF7CB
:1045F00094FE84460398825C0298401E02900270EA
:104600005CEA0100F0D1029806A9081A00F1200A1C
:10461000600702D524F4803400E00127574502DD0D
:10462000A7EB0A0000E0002000EB0A0100900598CB
:104630004144401A0590E00306D45B462146179A90
:10464000059800F0B3F90544002706E001A85A4692
:10465000C05D179990476D1C7F1C4745F6DBE00352
:104660000CD55B462146179A059800F09FF9054442
:1046700004E030205A46179990476D1C0099481E57
:1046800000900029F5DC08E0029802995A4600786B
:10469000491C0291179990476D1CBAF10001AAF1CB
:1046A000010AF1DC65E100000928010030313233F4
:1046B000343536373839616263646566000000005E
:1046C0003031323334353637383941424344454648
:1046D0000000000000F058F90544761C30780028EE
:1046E0007FF4ECAD19B02846BDE8F08F620700D426
:1046F000062709F1070222F0070CFCE80223E14635
:1047000003F000485FEA080C02D00FF2702C0DE0B5
:104710005FEA045C02D50FF2682C07E05FEAC47C14
:1047200002D00FF2602C01E0AFF2700C4FF0FF38B6
:1047300023F00043CDF850C065280CD006DC452896
:1047400009D046281DD047283DD13DE0662818D025
:1047500067287ED138E00021112F01DB112000E015
:10476000781CCDE9000106A90EA8FFF7E5FCDDE9FC
:104770000F010E9A03910021009207F1010A0491A2
:104780004DE04FF000400097CDE9011006A90EA8BA
:10479000FFF7D2FCDDE90F0203920E9B1199002274
:1047A000DDF80CA00093049211B9791C00EB010A0A
:1047B000B7EB0A0004D4C0F1FF3007F1010A0490FE
:1047C000AAEB0700019044E0012F00DA0127002145
:1047D000112F01DD112000E03846CDE9000106A9C6
:1047E0000EA8FFF7A9FCDDE90F010E9A0391002145
:1047F00004910092BA4621070CD40399514500DA7E
:104800008A46BAF1010F05DD009AAAF10101515C57
:10481000302908D0B84202DA10F1040F06DA01217B
:10482000CDE9011015E0AAF10101E9E7002805DC56
:10483000049901440491AAEB000102E0411C514596
:1048400000DD8A460499401A401C01904FF0004058
:104850000290200704D40198504501DBCDF8048074
:1048600000208DF84F0002980DF14F07B0F1004F76
:1048700025D02B200E9002984FF0020800280CDA69
:10488000404202902D200E9007E00A210298FBF78B
:104890002EFD3031029007F8011DB8F10001A8F19A
:1048A0000108F2DC02980028EFD1791E0E980870FA
:1048B000307800F0200040F0450007F8020D12A803
:1048C000C01B00F107081498007800B1012000EB2C
:1048D0000A01019801EBE07105984144401A401E1D
:1048E0000590E00306D45B462146179A059800F030
:1048F0005DF805441498007818B15A461799904706
:104900006D1CE00324D55B462146179A059800F0FC
:104910004DF805441CE00498002807DBDDE903019D
:10492000884203DD0098405C179901E01799302018
:104930005A469047049805F10105401C04900198DF
:10494000401E019004D12E205A46179990476D1CA5
:10495000BAF10001AAF1010ADDDC05E017F8010B4C
:104960005A46179990476D1CB8F10001A8F101084B
:10497000F4DC5B462146179A0598ABE62D00000053
:104980002B000000200000002DE9F0410446002526
:104990001E461746880404D405E039462020B04757
:1049A0006D1C641EF9D52846BDE8F0812DE9F04163
:1049B000044600251E469046C80301D5302700E076
:1049C0002027880404D505E041463846B0476D1CD1
:1049D000641EF9D52846BDE8F081704730B583B034
:1049E0000446FFF78DFB05460020CDE90000024696
:1049F00021466846FBF7DDFC2846FFF797FBDDE91B
:104A0000000103B030BD000010B5154C606CE063D0
:104A1000216C401A012821D91248FEF74BFE11489B
:104A20002838016979B1D0E9002100238A4209D0F0
:104A3000511AC16002D40121816102E049428361BF
:104A4000C16042600361C168002905DD491EC16083
:104A5000017E0120FEF782FEE06B206410BD0000A5
:104A6000040000200001002010B50549FBF77EFB83
:104A70000449FBF7ADFBBDE81040FBF7F0BB0000BD
:104A80000000C8440000204173B50122094D140202
:104A900021462846FCF728FC642301226946064883
:104AA000FEF780FC002221462846FCF71DFC0098FA
:104AB0007CBD0000000801400C0200202DE9F05FE1
:104AC000584C594E00256079012706F12809032822
:104AD0000AD0042878D0052804D1277135613560C3
:104AE0007560F560BDE8F09F4E4B4E4994F802C0EA
:104AF0005A6CDB6D4D488031D31A4FF0020B4FF0EA
:104B00000A0ABCF1070FEDD2DFE80CF005193404F6
:104B1000414F7900E6E70821FCF7BAFB012801D1F3
:104B200084F802B040484249283000F0FDFAC9F844
:104B30000050356135607560F560A770D2E7A265F9
:104B4000012BCFD9D9F808104F461431C9F80810F5
:104B50000821FCF79DFB012833D13561C6E900A58A
:104B6000F868B86030483249283000F0DDFA84F83F
:104B700002B026E025716570E5620D602A482C4977
:104B80002830256300F0D0FA0420A0700AE0052048
:104B9000A0706570E5620D602348254928302563C3
:104BA00000F0C2FA606CA0650CE0A265012B99D9F7
:104BB0002021FCF76DFB012807D0F068B561401C8F
:104BC000F060A06DE0658DE725E035613560164841
:104BD000756017492830F56000F0A6FA1248257173
:104BE0001349283000F0A0FA607A401CC0B260720D
:104BF0000A2801D2A770E4E70620A070E1E76572F9
:104C0000A771A570C6F800A0C6F808A0E5712772C4
:104C10000420607166E7E06AFFF726FFC9F800002C
:104C200060E7000004000020D800002000080140D8
:104C300094010020FCF79CFBFEF7CAFDFEF71AFC6E
:104C4000FEF7C0FCFEF718FDFEF78CFCFEF7E8FC53
:104C500018212848FDF7E4FE08212748FEF78EF9C1
:104C600008212548FDF7F6FA244800261E21C0E950
:104C70000916C662324604212148FCF735FB1F4D58
:104C8000204C283D1F4901220C311F48FEF728FB0C
:104C90001E48FDF7A7FBE07928B9207A18B100F08B
:104CA00055FA0120E071A07D90B1606CA065E16DC6
:104CB000401A01280BD920211548FCF7E9FA0128F0
:104CC00011D0E868AE61401CE860A06DE065A67593
:104CD00000F020F8FFF7F2FE00F054FAFFF794FE20
:104CE00000F07CF9CEE70A20EE606860A8682860D2
:104CF000EBE7000094010020580100200001002093
:104D0000000C0140040000200C020020D001002013
:104D1000000801402DE9F05F9E4801270026426C03
:104D20008266C16E00F18009531A0146C82B896A58
:104D30000DD9D9F808408C4207D0856FC0E91D54C1
:104D4000C9F80810C772C66700E0C767C266827BF1
:104D5000002A3CD0491C82468162C06FA8B38E48AD
:104D6000FBF7F0F9C0B28AF81400544600219AF813
:104D70000020894D14E06B5C472B04D0522B04D0EB
:104D8000482B0AD00AE0012208E06B1802225B7867
:104D9000303B6375CB1CE37400E00322491CC9B2AD
:104DA0008142E8D32270012A13D0022A7ED0032A3E
:104DB0007DD000202E54401CC0B21428FAD300200D
:104DC0002E54401CC0B21428FAD38AF80E60BDE8F5
:104DD000F09F002111E06A5C582A04D0592A05D0BE
:104DE000462A06D007E04A1CA27404E04A1CE2737B
:104DF00001E04A1C2274491CC9B28142EBD36074A1
:104E00008346A17C9AF80F000B46421E0AE000BFC1
:104E1000614C15F801C0A1EB03081E3C491C04F8C5
:104E200008C0C9B29142F3DB9AF8101003464A1E3B
:104E30000AE000BF584C15F800C0A0EB030814347A
:104E4000401C04F808C0C0B29042F3DB524BABF1F7
:104E50000100143B54460A469B4607E015F801C082
:104E6000A1EB0208491C0BF808C0C9B28142F5DB6E
:104E700049481E38FFF7B2FDFBF71DFAE0624648CD
:104E80001430FBF766F9C9F800004348C8461438E7
:104E9000FBF75FF920634049D8F800201E31012A52
:104EA00015D0022A15D0032A15D001E03EE063E0B8
:104EB0004A680A600F618A604FF49671884200D98F
:104EC00021633649E06A884207DBE66209E0B422E2
:104ED000EFE75A22EDE70A22EBE73149884200D991
:104EE000E1622079A0B9A07990B1E06AFFF7BCFD3A
:104EF0002949463108604A68821A00D55242642323
:104F000092FBF3F20A6148606770267204206071B8
:104F1000214B00201E3B03F132015A461E540E5411
:104F20001654401CC0B20A28F8D323E0617DB9B101
:104F3000194BE17C0A3B0A46401E07E015F801C008
:104F4000A1EB0208491C03F808C0C9B28142F5DB95
:104F50001148E7700A38FBF7FCF8C9F8040003E0D1
:104F6000E670E921C9F8041000202E54401CC0B29C
:104F70001428FAD3267022E7BFF34F8F094801683F
:104F8000094A01F4E06111430160BFF34F8F00BF94
:104F9000FDE7000004000020BA000020CDCCCC3E8C
:104FA00000808EC30CED00E00400FA050948026899
:104FB0000948426181698A420BD00649243909684F
:104FC000CB060146C96801D5491E00E0491C826133
:104FD000C160704724040040000100202DE9F8431F
:104FE0003F4C0025606C20662065616D401A0128E9
:104FF00017D9606A3B4E401C606204213046FCF7C2
:1050000047F9012802D1206A401C20621021304655
:10501000FCF73EF9012802D1206A401C2062206D75
:105020006065606A002601274FF00508322802DD1E
:105030002662666206E0206A0A2803DD266227717E
:1050400084F80580D4E91801401A616B884227D999
:10505000A079A0B12448C068FBF7F8F82349FBF712
:1050600085F82349FBF7B4F80546B0F17E5F02DC12
:105070002048854203D9277184F8058012E0207901
:1050800001280FD0E07848B1E07AA0B11AA0A16F52
:10509000FFF722F8206F401C2067E672206E6066E2
:1050A000BDE8F8832846FBF7F3F8226B009202462E
:1050B0000B4613A010E06079042805D00328EDD139
:1050C00013A0FFF709F8E9E72846FBF7E1F8226BA0
:1050D000009202460B4611A0FEF7FEFFDEE700003D
:1050E00004000020000801400001002000002041D1
:1050F0000000C844000091C34D344625640D0A00E9
:105100004D335825332E33664625640D0A000000C2
:105110004830463230300D0A000000005825332E4A
:1051200033664625640D0A000B6800225A6280F837
:10513000212080F82020C26109684A6282614261B0
:10514000C2608260026002617047000010B50022F8
:105150004FF480710848FCF7C7F80848FEF770F86C
:105160000648FEF789F8FEF787FABDE810400122ED
:1051700003490248FEF7B4B8000801400C020020C1
:1051800010000020F0B52848417800294BD0456C2C
:10519000C564816C691A022945D9016B0446C1F3C3
:1051A0004F0383832149268B648B0F69CA6C07EBFD
:1051B000870CB2EB4C0F01DA34440CE0002A944621
:1051C00001DACCF1000CC7EB071707EB4707BCEB84
:1051D000470F01DDA41B4483448B1E2C01D21E24E7
:1051E0004483A4B29C4200D943830F68CB680F4E1E
:1051F000A7EB030C00230124B668BCF1000F04DD0B
:10520000BE4204DC438BF41809E0BE4205DA8F602D
:10521000047284724370CB6404E0438BF41A1A4422
:105220008C60CA648564F0BD040000200001002089
:105230000000000000000000010203040607080946
:105240000000000001020304004040404040404094
:105250004040414141414140404040404040404049
:1052600040404040404040404005020202020202ED
:10527000020202020202020202202020202020203C
:105280002020200202020202020290909090909050
:10529000101010101010101010101010101010100E
:1052A0001010101002020202020288888888888882
:1052B000080808080808080808080808080808086E
:1052C00008080808020202024000000049520008D3
:1052D000F0520008000000209C0000000C41000873
:1052E0008C5300089C000020B40500001C410008FD
:1052F00000A24A04000000010003000100000000B9
:10530000000000000000000000000000030000009A
:10531000000000000000000000000000000000008D
:1053200000000000C8000000E900000000000000CC
:10533000000000000000000000000000000000006D
:10534000000000000000000000000000000000005D
:10535000000000000000000000000000000000004D
:10536000000000000000000000000000000000003D
:10537000000000000000000000000000000000002D
:0C53800000000000000000000000000021
:04000005080000ED02
:00000001FF
